{
  "contractName": "RewardContract",
  "abi": [
    {
      "inputs": [],
      "stateMutability": "nonpayable",
      "type": "constructor"
    },
    {
      "anonymous": false,
      "inputs": [
        {
          "indexed": true,
          "internalType": "address",
          "name": "from",
          "type": "address"
        },
        {
          "indexed": true,
          "internalType": "address",
          "name": "to",
          "type": "address"
        },
        {
          "indexed": false,
          "internalType": "uint256",
          "name": "amount",
          "type": "uint256"
        }
      ],
      "name": "RewardSent",
      "type": "event"
    },
    {
      "inputs": [],
      "name": "owner",
      "outputs": [
        {
          "internalType": "address",
          "name": "",
          "type": "address"
        }
      ],
      "stateMutability": "view",
      "type": "function"
    },
    {
      "inputs": [
        {
          "internalType": "address payable",
          "name": "recipient",
          "type": "address"
        }
      ],
      "name": "sendReward",
      "outputs": [],
      "stateMutability": "payable",
      "type": "function"
    },
    {
      "inputs": [],
      "name": "getBalance",
      "outputs": [
        {
          "internalType": "uint256",
          "name": "",
          "type": "uint256"
        }
      ],
      "stateMutability": "view",
      "type": "function"
    }
  ],
  "bytecode": "0x608060405234801561001057600080fd5b50336000806101000a81548173ffffffffffffffffffffffffffffffffffffffff021916908373ffffffffffffffffffffffffffffffffffffffff160217905550610367806100606000396000f3fe6080604052600436106100345760003560e01c806312065fe0146100395780638da5cb5b146100645780639dabff251461008f575b600080fd5b34801561004557600080fd5b5061004e6100ab565b60405161005b91906102a0565b60405180910390f35b34801561007057600080fd5b506100796100b3565b6040516100869190610265565b60405180910390f35b6100a960048036038101906100a491906101de565b6100d7565b005b600047905090565b60008054906101000a900473ffffffffffffffffffffffffffffffffffffffff1681565b6000341161011a576040517f08c379a000000000000000000000000000000000000000000000000000000000815260040161011190610280565b60405180910390fd5b8073ffffffffffffffffffffffffffffffffffffffff166108fc349081150290604051600060405180830381858888f19350505050158015610160573d6000803e3d6000fd5b508073ffffffffffffffffffffffffffffffffffffffff163373ffffffffffffffffffffffffffffffffffffffff167f8432952c9ff89738f893e867fa3c19fde7223207c2f40ba8131f18d6ba1f3f6e346040516101be91906102a0565b60405180910390a350565b6000813590506101d88161031a565b92915050565b6000602082840312156101f057600080fd5b60006101fe848285016101c9565b91505092915050565b610210816102cc565b82525050565b6000610223600d836102bb565b91507f53656e6420736f6d6520455448000000000000000000000000000000000000006000830152602082019050919050565b61025f81610310565b82525050565b600060208201905061027a6000830184610207565b92915050565b6000602082019050818103600083015261029981610216565b9050919050565b60006020820190506102b56000830184610256565b92915050565b600082825260208201905092915050565b60006102d7826102f0565b9050919050565b60006102e9826102f0565b9050919050565b600073ffffffffffffffffffffffffffffffffffffffff82169050919050565b6000819050919050565b610323816102de565b811461032e57600080fd5b5056fea2646970667358221220a534408963543fc80692234836de23dfb03e3f576b6bef8405d66f1520d9f7a864736f6c63430008000033",
  "immutableReferences": {},
  "source": "// SPDX-License-Identifier: MIT\r\npragma solidity ^0.8.0;\r\n\r\ncontract RewardContract {\r\n    address public owner;\r\n\r\n    constructor() {\r\n        owner = msg.sender;\r\n    }\r\n\r\n    event RewardSent(address indexed from, address indexed to, uint256 amount);\r\n\r\n    function sendReward(address payable recipient) external payable {\r\n        require(msg.value > 0, \"Send some ETH\");\r\n        recipient.transfer(msg.value);\r\n        emit RewardSent(msg.sender, recipient, msg.value);\r\n    }\r\n\r\n    // For contract balance check (optional)\r\n    function getBalance() public view returns (uint256) {\r\n        return address(this).balance;\r\n    }\r\n}\r\n",
  "sourcePath": "C:\\Users\\Shane Coelho\\Desktop\\Talent Chain\\TalentChainFrontend\\Web3TalentChain\\contracts\\Web3TalentChain.sol",
  "compiler": {
    "name": "solc",
    "version": "0.8.0+commit.c7dfd78e.Emscripten.clang"
  },
  "schemaVersion": "3.4.16",
  "updatedAt": "2025-04-20T15:48:28.629Z",
  "devdoc": {
    "kind": "dev",
    "methods": {},
    "version": 1
  },
  "userdoc": {
    "kind": "user",
    "methods": {},
    "version": 1
  }
}